:107000005FC0000078C0000076C0000074C00000BF
:1070100072C0000070C000006EC000006CC00000B4
:107020006AC0000068C00000DEC4000064C0000048
:1070300062C0000060C000005EC000005CC00000D4
:107040005AC000009BC0000056C0000054C00000A1
:1070500052C0000050C000004EC000004CC00000F4
:107060004AC0000048C0000046C0000044C0000004
:1070700042C0000040C000003EC000003CC0000014
:107080003AC0000038C0000036C0000034C0000024
:1070900032C0000030C000002EC000002CC0000034
:1070A0002AC0000028C0000026C000005B3E743EDD
:1070B000203F743E203FAC3ECE3E203FEE3E003FA0
:1070C00011241FBECFEFDAE0DEBFCDBF11E0A0E09C
:1070D000B1E0EAECFEE702C005900D92A23BB107D9
:1070E000D9F721E0A2EBB1E001C01D92AB3CB207A1
:1070F000E1F71DD3E8C684CF84E08093E900809156
:10710000E80085FD0DC08091E8008B778093E80052
:107110008091E80082FDF3CF8EB38111F9CF02C0D8
:107120008091F100089593E09093E9009091E80038
:1071300095FF0AC08093F1002D9A84E690E0909329
:10714000B9018093B80108959091E8009E779093DB
:10715000E8009091E80090FDEDCF9EB39111F9CF3A
:107160000895F89410926F001092810081E085BF1D
:1071700015BE2D982F980C94000008951F920F9221
:107180000FB60F9211242F938F939F93EF93FF933A
:1071900010928500109284008091B8019091B901FD
:1071A000009741F001979093B9018093B801892B22
:1071B00009F42D988091B6019091B701009741F0A4
:1071C00001979093B7018093B601892B09F42F980A
:1071D0008091B2019091B30101969093B301809395
:1071E000B201E0E0F0E085919491019649F0809140
:1071F000B4019091B50101969093B5018093B401CB
:10720000FF91EF919F918F912F910F900FBE0F9053
:107210001F90189542E061EC82E062D342E161E8A0
:1072200083E05ED342E160E884E05AC38091C30109
:10723000982F9F77913239F59091C401903291F057
:10724000913209F5813AF9F48091E800877F8093C3
:10725000E80067E070E082E091E073D48091E8009C
:107260008B770FC0813279F48091E800877F80931B
:10727000E80067E070E082E091E0BBD48091E80034
:107280008E778093E80008954F925F926F927F927D
:107290008F929F92AF92BF92CF92DF92EF92FF9226
:1072A0000F931F93CF93DF9384E08093E900809145
:1072B000E80082FF2BC22E9A84E690E09093B701FB
:1072C0008093B60119DFC82F853481F48CE49DE1E9
:1072D0009093B5018093B40107B600FCFDCFF999F6
:1072E000FECF81E180935700E89503C0843521F4F7
:1072F00003DF8DE018DFE1C18C34D9F38035C9F3A9
:10730000843721F484E40FDF80E0F4CF813611F478
:1073100089E5F0CF813491F4EFDEC82FEDDE2C2F1C
:1073200030E0322F2227330F90E0880F991F822BF5
:10733000932B092E000CAA0BBB0B93C1803711F4C1
:1073400083E5D8CF833549F4C9EAD1E08991EBDEF2
:1073500021E0C03BD207D1F7B0C1863521F481E3EB
:10736000E2DE80E3C7CF833731F487E8DCDE85E9EE
:10737000DADE8EE1BFCF8536B9F4E0E0F0E083E0FD
:1073800095E080935700E89507B600FCFDCF9093F9
:107390005700E89507B600FCFDCFE058FF4FE11518
:1073A00040E7F40771F7A5CF823719F4E1E0F0E088
:1073B0000EC0863419F4E0E0F0E009C08E3419F410
:1073C000E3E0F0E004C0813539F4E2E0F0E089E088
:1073D0008093570084918ECF823631F489E5A3DE05
:1073E00080E0A1DE80E886CF823419F0873609F08C
:1073F000D0C01092B5011092B4017EDE082F7CDE61
:10740000D82F7ADE182F8BEB810F823010F08FE3AC
:1074100071CF8D2F90E0902B10926F00C73609F03E
:1074200042C021E120935700E895EC01B12C01E026
:10743000209709F4AAC0C090BB01D090BC01E09095
:10744000BD01F090BE011634B9F4EB2DF0E0EC294B
:10745000FD29849168DEBB2069F052E0C50ED11C85
:10746000E11CF11CC092BB01D092BC01E092BD01B5
:10747000F092BE01B02615C0D701C601B695A795FA
:10748000979587950AD54FDE82E0C80ED11CE11C86
:10749000F11CC092BB01D092BC01E092BD01F09200
:1074A000BE012197C5CF8090BB019090BC01A090F8
:1074B000BD01B090BE01163441F423E0F4012093E5
:1074C0005700E89507B600FCFDCFE12CF12CEC014C
:1074D00001E0209709F44DC0163439F5FF2009F179
:1074E0004090BB015090BC016090BD017090BE0106
:1074F00003DE2E2D30E0A901582BF2010A01009382
:107500005700E8951124F2E04F0E511C611C711CCC
:107510004092BB015092BC016092BD017092BE01CD
:1075200002C0EADDE82EF02622C0E6DD682F809159
:10753000BB019091BC01A091BD01B091BE01B69577
:10754000A79597958795B1D48091BB019091BC0187
:10755000A091BD01B091BE010296A11DB11D809305
:10756000BB019093BC01A093BD01B093BE012197D4
:10757000B0CF163441F485E0F40180935700E895CC
:1075800007B600FCFDCF8DE0CEDD82E080936F007A
:1075900094C0833471F4C091BB01D091BC01ACDDC7
:1075A00090E021E0FE010C0120935700E8951124A2
:1075B000A0CE833601F5C090BB01D090BC01E09015
:1075C000BD01F090BE0198DDF601E16090E021E0A0
:1075D0000C0120935700E8951124F2E0CF0ED11C46
:1075E000E11CF11CC092BB01D092BC01E092BD0134
:1075F000F092BE017ECE8D3661F4E091BB01F09138
:10760000BC0185E080935700E89507B600FCFDCFEC
:1076100070CE823551F4E091BB01F091BC01C5916F
:10762000D4918D2F80DD8C2F65CE843419F564DDE7
:10763000682F8091BB019091BC01A091BD01B091D8
:10764000BE01B695A795979587952FD48091BB01DC
:107650009091BC01A091BD01B091BE010296A11D07
:10766000B11D8093BB019093BC01A093BD01B09369
:10767000BE013FCE8436F1F4C090BB01D090BC0176
:10768000E090BD01F090BE01D701C601B695A79567
:107690009795879502D447DD22E0C20ED11CE11CEC
:1076A000F11CC092BB01D092BC01E092BD01F092EE
:1076B000BE0103C08B3109F0AACE83E08093E900BC
:1076C0009091E8008091E8008E778093E80095FD26
:1076D00011C08091E80080FD04C08EB38111F9CF04
:1076E00015C08091E8008E778093E80003C08EB3C8
:1076F000882361F08091E80080FFF9CF84E08093D7
:10770000E9008091E8008B778093E800DF91CF91CA
:107710001F910F91FF90EF90DF90CF90BF90AF90AF
:107720009F908F907F906F905F904F900895CF9330
:10773000DF93C091000810920008D4B714BE0FB6B2
:10774000F894A89580916000886180936000109201
:1077500060000FBE20E880E00FB6F894209361002F
:10776000809361000FBE81E085BF92E095BF249AAF
:107770002C98259A269A20936100109261002D98EA
:107780002F98109289002AEF2093880090936F0021
:1077900093E090938100E0E0F0E0259134912F3F59
:1077A0003F4F11F08093BA0183E390E076D38111CB
:1077B000C0910001D1FF20C080910001C817E1F005
:1077C00080930008789480910101882339F080919A
:1077D000B2019091B30188379140C8F31092010132
:1077E000F8941092000881E0809301018091BA0121
:1077F000882371F0B6DC0CC0D0FF04C08091BA01C0
:107800008111F8CFD3FF04C080910001C813EECFDF
:10781000D2D078941092B5011092B40180910101F8
:10782000882309F131DD22D38091B4019091B50113
:1078300081349F4168F48091BF019091C00101960D
:107840009093C0018093BF0197FF0BC02D98E6CFA6
:107850001092010160E083E390E027D3F999FECF15
:10786000EACF2D9ADBCF8091E00081608093E00029
:1078700078DC80E090E0DF91CF910895292F30E00F
:107880002230310559F02330310569F021303105BE
:10789000F9F482E190E027E931E01EC08EE390E048
:1078A00029E531E019C0882349F0813061F0823048
:1078B00079F48AE290E029E031E00EC084E090E0C3
:1078C00025E531E009C08EE190E025E331E004C018
:1078D00080E090E020E030E0FA01318320830895D9
:1078E0008093E900EBEEF0E0808181608083EDEE33
:1078F000F0E010826093EC0040838091EE00881FDE
:107900008827881F08958091C30187FF0FC0809149
:10791000E80082FD04C08EB38111F9CF10C08091C0
:10792000E8008B770AC08EB3882349F08091E80085
:1079300080FFF9CF8091E8008E778093E80008956A
:107940000F931F93CF93DF9341D048D0C8EDD0E081
:1079500088818F77888388818068888388818F7DFC
:10796000888319BC1EBA1092C10100EE10E0F80124
:1079700080818B7F808388818160888342E060E0A2
:1079800080E0AEDFE1EEF0E080818E7F8083E2EE8A
:10799000F0E0808181608083808188608083F8014D
:1079A00080818E7F8083888180618883DF91CF9101
:1079B0001F910F910895E7EDF0E080818160808351
:1079C0008AE482BF81E08093C201BACFE8EDF0E0A3
:1079D00080818E7F80831092E20008951092DA00F9
:1079E0001092E10008951F920F920FB60F9211248A
:1079F0002F933F934F935F936F937F938F939F93B7
:107A0000AF93BF93EF93FF938091DA0080FF19C08B
:107A10008091D80080FF15C08091DA008E7F80931E
:107A2000DA008091D90019BC80FF09C082E089BDCD
:107A300009B400FEFDCF81E08EBB17D202C01EBA92
:107A400014D28091E10080FF17C08091E20080FF96
:107A500013C08091E2008E7F8093E2008091E2006B
:107A600080618093E2008091D80080628093D8008A
:107A700019BC85E08EBBF9D18091E10084FF2BC059
:107A80008091E20084FF27C019BC82E089BD09B45F
:107A900000FEFDCF8091D8008F7D8093D80080912B
:107AA000E1008F7E8093E1008091E2008F7E8093E1
:107AB000E2008091E20081608093E2008091C10148
:107AC000811106C08091E30087FD02C081E001C002
:107AD00084E08EBBCAD18091E10083FF21C08091F8
:107AE000E20083FF1DC08091E100877F8093E10069
:107AF00082E08EBB1092C1018091E1008E7F809365
:107B0000E1008091E2008E7F8093E2008091E200AC
:107B100080618093E20042E060E080E0E1DEA5D198
:107B2000FF91EF91BF91AF919F918F917F916F9155
:107B30005F914F913F912F910F900FBE0F901F902B
:107B400018952091C9013091CA012617370748F0CE
:107B50006115710539F42091E8002E772093E80033
:107B600001C0B901FC0120E06115710571F18EB30E
:107B70008823D9F18530D9F18091E80083FD33C0A5
:107B80008091E80082FD29C08091E80080FFECCF61
:107B90002091F3008091F20090E0922B6115710525
:107BA00051F08830910538F421912093F100615013
:107BB00071090196F3CF21E0089709F020E0809148
:107BC000E8008E778093E800CFCF2111D0CF05C099
:107BD0008EB3882351F0853051F08091E80082FF08
:107BE000F7CF80E0089581E0089582E0089583E072
:107BF00008956115710529F42091E8002B772093F1
:107C0000E800FC016115710531F18EB3882359F14B
:107C1000853059F18091E80083FD23C08091E80010
:107C200082FFF0CF2091F3008091F20090E0922B40
:107C3000892B31F08091F10081936150710991F7A6
:107C40008091E8008B778093E800DCCF8EB38823A7
:107C500051F0853051F08091E80080FFF7CF80E04F
:107C6000089581E0089582E0089583E008950F93D8
:107C70001F93CF93DF9300D0CDB7DEB7E3ECF1E0F5
:107C80008BEC91E02091F10021938E179F07D1F7A3
:107C9000CDDA8091E80083FFD3C08091C301909139
:107CA000C401492F50E04A30510508F0C9C0FA011B
:107CB000EA5AF74CECC0823809F0C2C08091C70183
:107CC00087708093E9008091EB001092E900909119
:107CD000E800977F9093E80085FB882780F98093E0
:107CE000F1001092F10085C0282F2D7F09F0A8C067
:107CF000823009F0A5C08091C501811127C0809113
:107D0000C701877009F49CC08093E9002091EB00C3
:107D100020FF1CC0933021F48091EB00806214C0DE
:107D20009091EB0090619093EB0021E030E0A9018D
:107D300002C0440F551F8A95E2F74093EA00109263
:107D4000EA008091EB0088608093EB001092E900DC
:107D50008091E800877F50C0811172C01091C501E9
:107D60001F770FB7F8948091E800877F8093E80031
:107D7000CADD8091E80080FFFCCF8091E30080782D
:107D8000812B8093E30080688093E300111102C08F
:107D900082E001C083E08EBB0FBF52C080588230AA
:107DA00008F04EC0AE014F5F5F4F6091C7018091F8
:107DB000C5019091C60162DDBC01892B09F440C068
:107DC0009091E800977F9093E80089819A81B9DECD
:107DD0008091E8008B778093E80032C0803881F58D
:107DE0008091E800877F8093E8008091C1018093B3
:107DF000F1008091E8008E778093E80084DD20C058
:107E000081111EC08091C5019091C60199270297EA
:107E1000BCF48091E800877F8093E8008091C501E1
:107E20008093C10170DD8091C101811106C08091F4
:107E3000E30087FD02C081E001C084E08EBBEAD987
:107E40008091E80083FF0AC08091EB0080628093FC
:107E5000EB008091E800877F8093E8000F900F90FF
:107E6000DF91CF911F910F9108950895CF938EB315
:107E7000882359F0C091E900C7701092E900809101
:107E8000E80083FDF4DEC093E900CF910895EE0F82
:107E9000FF1F0590F491E02D0994F999FECF92BD52
:107EA00081BDF89A992780B50895262FF999FECFBC
:107EB0001FBA92BD81BD20BD0FB6F894FA9AF99A07
:0A7EC0000FBE01960895F894FFCF5D
:107ECA007701000000000000082A0355006E006BCD
:107EDA00006E006F0077006E002000200020002056
:107EEA000020002000200020002000200020002088
:107EFA0000200000001E03550053004200200049E4
:107F0A00004F00200062006F0061007200640020D0
:107F1A0000200000000403090409023E00020100D7
:107F2A008032090400000102020100052400100148
:107F3A00042402040524060001070582030800FF41
:107F4A0009040100020A00000007050402100001EA
:107F5A000705830210000112011001020000084106
:107F6A002336000100020100014341544552494EA3
:027F7A004100C4
:040000030000700089
:00000001FF
